:100000000C943E000C9495000C94AB000C945B0097
:100010000C945B000C945B000C945B000C945B00F4
:100020000C945B000C945B000C945B000C945B00E4
:100030000C945B000C945B000C945B000C945B00D4
:100040000C945B000C945B000C945B000C945B00C4
:100050000C945B000C945B000C945B000C945B00B4
:100060000C94C1000C945B000C945B000C945B003E
:100070000C945B000C945B000C945B0011241FBE7D
:10008000CFEFD0E1DEBFCDBF11E0A0E0B1E0ECE901
:10009000F2E002C005900D92AC31B107D9F711E042
:1000A000ACE1B1E001C01D92A332B107E1F70E94BB
:1000B000CC000C944C010C9400001F93182F8A3034
:1000C00019F48DE00E945D008091C00085FFFCCF97
:1000D0001093C600212F332727FD3095C9011F91AA
:1000E00008958091C00087FFFCCF8091C60090E00A
:1000F00008951092C5008DE48093C40088E1809338
:10010000C10086E08093C2008EE091E090932001D0
:1001100080931F01909322018093210180E091E060
:1001200090931E0180931D0108951F920F920FB6A8
:100130000F9211248F932F9A80911C0187FD05C087
:1001400080911C018F5F80931C018F910F900FBED7
:100150000F901F9018951F920F920FB60F921124B7
:100160008F932F9880911C01882329F080911C0186
:10017000815080931C018F910F900FBE0F901F90A4
:1001800018951F920F920FB60F9211241F9A0F907D
:100190000FBE0F901F9018950E947900279A2F98F4
:1001A0008091690083608093690080916900886014
:1001B0008093690081E080937A0010927C008091A6
:1001C0007A00806A80937A0010927B00E89AE99A1C
:1001D00080917A00886080937A00789480917A0088
:1001E000806480937A0082E090E0F7E0E6E075E0DA
:1001F00063E052E041E034E020911C012031C1F184
:10020000213138F4243051F1283069F1223039F4A9
:1002100020C02034B9F12038D1F1203271F1803181
:10022000910531F18131910554F484309105B1F09B
:1002300088309105C1F082309105F1F60AC0803412
:10024000910501F18038910511F180329105A1F6F7
:1002500014C040937A0082E090E0CECF50937A00B1
:1002600084E090E0C9CF60937A0088E090E0C4CF4A
:1002700030937A0080E190E0BFCF70937A0080E203
:1002800090E0BACFE0937A0080E490E0B5CFF093AD
:0C0290007A0080E890E0B0CFF894FFCF37
:10029C0000000001000000000000710000000000E0
:0C02AC000002000000005D0000000000E7
:00000001FF
